{
  "contractName": "SupplyChain",
  "abi": [
    {
      "inputs": [],
      "payable": false,
      "stateMutability": "nonpayable",
      "type": "constructor"
    },
    {
      "constant": true,
      "inputs": [
        {
          "internalType": "uint256",
          "name": "",
          "type": "uint256"
        }
      ],
      "name": "DIS",
      "outputs": [
        {
          "internalType": "address",
          "name": "addr",
          "type": "address"
        },
        {
          "internalType": "uint256",
          "name": "id",
          "type": "uint256"
        },
        {
          "internalType": "string",
          "name": "name",
          "type": "string"
        },
        {
          "internalType": "string",
          "name": "place",
          "type": "string"
        }
      ],
      "payable": false,
      "stateMutability": "view",
      "type": "function"
    },
    {
      "constant": true,
      "inputs": [
        {
          "internalType": "uint256",
          "name": "",
          "type": "uint256"
        }
      ],
      "name": "MAN",
      "outputs": [
        {
          "internalType": "address",
          "name": "addr",
          "type": "address"
        },
        {
          "internalType": "uint256",
          "name": "id",
          "type": "uint256"
        },
        {
          "internalType": "string",
          "name": "name",
          "type": "string"
        },
        {
          "internalType": "string",
          "name": "place",
          "type": "string"
        }
      ],
      "payable": false,
      "stateMutability": "view",
      "type": "function"
    },
    {
      "constant": true,
      "inputs": [
        {
          "internalType": "uint256",
          "name": "",
          "type": "uint256"
        }
      ],
      "name": "MedicineStock",
      "outputs": [
        {
          "internalType": "uint256",
          "name": "id",
          "type": "uint256"
        },
        {
          "internalType": "string",
          "name": "name",
          "type": "string"
        },
        {
          "internalType": "string",
          "name": "description",
          "type": "string"
        },
        {
          "internalType": "uint256",
          "name": "RMSid",
          "type": "uint256"
        },
        {
          "internalType": "uint256",
          "name": "MANid",
          "type": "uint256"
        },
        {
          "internalType": "uint256",
          "name": "DISid",
          "type": "uint256"
        },
        {
          "internalType": "uint256",
          "name": "RETid",
          "type": "uint256"
        },
        {
          "internalType": "enum SupplyChain.STAGE",
          "name": "stage",
          "type": "uint8"
        }
      ],
      "payable": false,
      "stateMutability": "view",
      "type": "function"
    },
    {
      "constant": true,
      "inputs": [],
      "name": "Owner",
      "outputs": [
        {
          "internalType": "address",
          "name": "",
          "type": "address"
        }
      ],
      "payable": false,
      "stateMutability": "view",
      "type": "function"
    },
    {
      "constant": true,
      "inputs": [
        {
          "internalType": "uint256",
          "name": "",
          "type": "uint256"
        }
      ],
      "name": "RET",
      "outputs": [
        {
          "internalType": "address",
          "name": "addr",
          "type": "address"
        },
        {
          "internalType": "uint256",
          "name": "id",
          "type": "uint256"
        },
        {
          "internalType": "string",
          "name": "name",
          "type": "string"
        },
        {
          "internalType": "string",
          "name": "place",
          "type": "string"
        }
      ],
      "payable": false,
      "stateMutability": "view",
      "type": "function"
    },
    {
      "constant": true,
      "inputs": [
        {
          "internalType": "uint256",
          "name": "",
          "type": "uint256"
        }
      ],
      "name": "RMS",
      "outputs": [
        {
          "internalType": "address",
          "name": "addr",
          "type": "address"
        },
        {
          "internalType": "uint256",
          "name": "id",
          "type": "uint256"
        },
        {
          "internalType": "string",
          "name": "name",
          "type": "string"
        },
        {
          "internalType": "string",
          "name": "place",
          "type": "string"
        }
      ],
      "payable": false,
      "stateMutability": "view",
      "type": "function"
    },
    {
      "constant": true,
      "inputs": [],
      "name": "disCtr",
      "outputs": [
        {
          "internalType": "uint256",
          "name": "",
          "type": "uint256"
        }
      ],
      "payable": false,
      "stateMutability": "view",
      "type": "function"
    },
    {
      "constant": true,
      "inputs": [],
      "name": "manCtr",
      "outputs": [
        {
          "internalType": "uint256",
          "name": "",
          "type": "uint256"
        }
      ],
      "payable": false,
      "stateMutability": "view",
      "type": "function"
    },
    {
      "constant": true,
      "inputs": [],
      "name": "medicineCtr",
      "outputs": [
        {
          "internalType": "uint256",
          "name": "",
          "type": "uint256"
        }
      ],
      "payable": false,
      "stateMutability": "view",
      "type": "function"
    },
    {
      "constant": true,
      "inputs": [],
      "name": "retCtr",
      "outputs": [
        {
          "internalType": "uint256",
          "name": "",
          "type": "uint256"
        }
      ],
      "payable": false,
      "stateMutability": "view",
      "type": "function"
    },
    {
      "constant": true,
      "inputs": [],
      "name": "rmsCtr",
      "outputs": [
        {
          "internalType": "uint256",
          "name": "",
          "type": "uint256"
        }
      ],
      "payable": false,
      "stateMutability": "view",
      "type": "function"
    },
    {
      "constant": true,
      "inputs": [
        {
          "internalType": "uint256",
          "name": "_medicineID",
          "type": "uint256"
        }
      ],
      "name": "showStage",
      "outputs": [
        {
          "internalType": "string",
          "name": "",
          "type": "string"
        }
      ],
      "payable": false,
      "stateMutability": "view",
      "type": "function"
    },
    {
      "constant": false,
      "inputs": [
        {
          "internalType": "address",
          "name": "_address",
          "type": "address"
        },
        {
          "internalType": "string",
          "name": "_name",
          "type": "string"
        },
        {
          "internalType": "string",
          "name": "_place",
          "type": "string"
        }
      ],
      "name": "addRMS",
      "outputs": [],
      "payable": false,
      "stateMutability": "nonpayable",
      "type": "function"
    },
    {
      "constant": false,
      "inputs": [
        {
          "internalType": "address",
          "name": "_address",
          "type": "address"
        },
        {
          "internalType": "string",
          "name": "_name",
          "type": "string"
        },
        {
          "internalType": "string",
          "name": "_place",
          "type": "string"
        }
      ],
      "name": "addManufacturer",
      "outputs": [],
      "payable": false,
      "stateMutability": "nonpayable",
      "type": "function"
    },
    {
      "constant": false,
      "inputs": [
        {
          "internalType": "address",
          "name": "_address",
          "type": "address"
        },
        {
          "internalType": "string",
          "name": "_name",
          "type": "string"
        },
        {
          "internalType": "string",
          "name": "_place",
          "type": "string"
        }
      ],
      "name": "addDistributor",
      "outputs": [],
      "payable": false,
      "stateMutability": "nonpayable",
      "type": "function"
    },
    {
      "constant": false,
      "inputs": [
        {
          "internalType": "address",
          "name": "_address",
          "type": "address"
        },
        {
          "internalType": "string",
          "name": "_name",
          "type": "string"
        },
        {
          "internalType": "string",
          "name": "_place",
          "type": "string"
        }
      ],
      "name": "addRetailer",
      "outputs": [],
      "payable": false,
      "stateMutability": "nonpayable",
      "type": "function"
    },
    {
      "constant": false,
      "inputs": [
        {
          "internalType": "uint256",
          "name": "_medicineID",
          "type": "uint256"
        }
      ],
      "name": "RMSsupply",
      "outputs": [],
      "payable": false,
      "stateMutability": "nonpayable",
      "type": "function"
    },
    {
      "constant": false,
      "inputs": [
        {
          "internalType": "uint256",
          "name": "_medicineID",
          "type": "uint256"
        }
      ],
      "name": "Manufacturing",
      "outputs": [],
      "payable": false,
      "stateMutability": "nonpayable",
      "type": "function"
    },
    {
      "constant": false,
      "inputs": [
        {
          "internalType": "uint256",
          "name": "_medicineID",
          "type": "uint256"
        }
      ],
      "name": "Distribute",
      "outputs": [],
      "payable": false,
      "stateMutability": "nonpayable",
      "type": "function"
    },
    {
      "constant": false,
      "inputs": [
        {
          "internalType": "uint256",
          "name": "_medicineID",
          "type": "uint256"
        }
      ],
      "name": "Retail",
      "outputs": [],
      "payable": false,
      "stateMutability": "nonpayable",
      "type": "function"
    },
    {
      "constant": false,
      "inputs": [
        {
          "internalType": "uint256",
          "name": "_medicineID",
          "type": "uint256"
        }
      ],
      "name": "sold",
      "outputs": [],
      "payable": false,
      "stateMutability": "nonpayable",
      "type": "function"
    },
    {
      "constant": false,
      "inputs": [
        {
          "internalType": "string",
          "name": "_name",
          "type": "string"
        },
        {
          "internalType": "string",
          "name": "_description",
          "type": "string"
        }
      ],
      "name": "addMedicine",
      "outputs": [],
      "payable": false,
      "stateMutability": "nonpayable",
      "type": "function"
    }
  ],
  "bytecode": "0x60806040526000600155600060025560006003556000600455600060055534801561002957600080fd5b50336000806101000a81548173ffffffffffffffffffffffffffffffffffffffff021916908373ffffffffffffffffffffffffffffffffffffffff160217905550612cd2806100796000396000f3fe608060405234801561001057600080fd5b50600436106101425760003560e01c806386c18275116100b8578063b4a99a4e1161007c578063b4a99a4e14610c59578063cc40306914610ca3578063dd28639814610df0578063e101a2e014610e0e578063eb1a06b514610eb5578063eef5cb401461100057610142565b806386c1827514610a5f5780638f4183cc14610a8d5780639c03facb14610bdf578063a48d335a14610c0d578063a95f29d914610c3b57610142565b8063438e9c4d1161010a578063438e9c4d146105c45780634def474a146105e257806359bf286f146106105780636a992c9f1461075d5780637e43d94d146108cf578063857ddb04146108ed57610142565b80632a4af440146101475780632b0187ac146102b95780632b70b08d146104065780632bdb2e6b146105785780633d753a1c14610596575b600080fd5b6102b76004803603606081101561015d57600080fd5b81019080803573ffffffffffffffffffffffffffffffffffffffff1690602001909291908035906020019064010000000081111561019a57600080fd5b8201836020820111156101ac57600080fd5b803590602001918460018302840111640100000000831117156101ce57600080fd5b91908080601f016020809104026020016040519081016040528093929190818152602001838380828437600081840152601f19601f8201169050808301925050505050505091929192908035906020019064010000000081111561023157600080fd5b82018360208201111561024357600080fd5b8035906020019184600183028401116401000000008311171561026557600080fd5b91908080601f016020809104026020016040519081016040528093929190818152602001838380828437600081840152601f19601f82011690508083019250505050505050919291929050505061114d565b005b6102e5600480360360208110156102cf57600080fd5b8101908080359060200190929190505050611299565b604051808573ffffffffffffffffffffffffffffffffffffffff1673ffffffffffffffffffffffffffffffffffffffff1681526020018481526020018060200180602001838103835285818151815260200191508051906020019080838360005b83811015610361578082015181840152602081019050610346565b50505050905090810190601f16801561038e5780820380516001836020036101000a031916815260200191505b50838103825284818151815260200191508051906020019080838360005b838110156103c75780820151818401526020810190506103ac565b50505050905090810190601f1680156103f45780820380516001836020036101000a031916815260200191505b50965050505050505060405180910390f35b6105766004803603606081101561041c57600080fd5b81019080803573ffffffffffffffffffffffffffffffffffffffff1690602001909291908035906020019064010000000081111561045957600080fd5b82018360208201111561046b57600080fd5b8035906020019184600183028401116401000000008311171561048d57600080fd5b91908080601f016020809104026020016040519081016040528093929190818152602001838380828437600081840152601f19601f820116905080830192505050505050509192919290803590602001906401000000008111156104f057600080fd5b82018360208201111561050257600080fd5b8035906020019184600183028401116401000000008311171561052457600080fd5b91908080601f016020809104026020016040519081016040528093929190818152602001838380828437600081840152601f19601f820116905080830192505050505050509192919290505050611419565b005b610580611565565b6040518082815260200191505060405180910390f35b6105c2600480360360208110156105ac57600080fd5b810190808035906020019092919050505061156b565b005b6105cc61163d565b6040518082815260200191505060405180910390f35b61060e600480360360208110156105f857600080fd5b8101908080359060200190929190505050611643565b005b61063c6004803603602081101561062657600080fd5b8101908080359060200190929190505050611715565b604051808573ffffffffffffffffffffffffffffffffffffffff1673ffffffffffffffffffffffffffffffffffffffff1681526020018481526020018060200180602001838103835285818151815260200191508051906020019080838360005b838110156106b857808201518184015260208101905061069d565b50505050905090810190601f1680156106e55780820380516001836020036101000a031916815260200191505b50838103825284818151815260200191508051906020019080838360005b8381101561071e578082015181840152602081019050610703565b50505050905090810190601f16801561074b5780820380516001836020036101000a031916815260200191505b50965050505050505060405180910390f35b6108cd6004803603606081101561077357600080fd5b81019080803573ffffffffffffffffffffffffffffffffffffffff169060200190929190803590602001906401000000008111156107b057600080fd5b8201836020820111156107c257600080fd5b803590602001918460018302840111640100000000831117156107e457600080fd5b91908080601f016020809104026020016040519081016040528093929190818152602001838380828437600081840152601f19601f8201169050808301925050505050505091929192908035906020019064010000000081111561084757600080fd5b82018360208201111561085957600080fd5b8035906020019184600183028401116401000000008311171561087b57600080fd5b91908080601f016020809104026020016040519081016040528093929190818152602001838380828437600081840152601f19601f820116905080830192505050505050509192919290505050611895565b005b6108d76119e1565b6040518082815260200191505060405180910390f35b610a5d6004803603606081101561090357600080fd5b81019080803573ffffffffffffffffffffffffffffffffffffffff1690602001909291908035906020019064010000000081111561094057600080fd5b82018360208201111561095257600080fd5b8035906020019184600183028401116401000000008311171561097457600080fd5b91908080601f016020809104026020016040519081016040528093929190818152602001838380828437600081840152601f19601f820116905080830192505050505050509192919290803590602001906401000000008111156109d757600080fd5b8201836020820111156109e957600080fd5b80359060200191846001830284011164010000000083111715610a0b57600080fd5b91908080601f016020809104026020016040519081016040528093929190818152602001838380828437600081840152601f19601f8201169050808301925050505050505091929192905050506119e7565b005b610a8b60048036036020811015610a7557600080fd5b8101908080359060200190929190505050611b33565b005b610bdd60048036036040811015610aa357600080fd5b8101908080359060200190640100000000811115610ac057600080fd5b820183602082011115610ad257600080fd5b80359060200191846001830284011164010000000083111715610af457600080fd5b91908080601f016020809104026020016040519081016040528093929190818152602001838380828437600081840152601f19601f82011690508083019250505050505050919291929080359060200190640100000000811115610b5757600080fd5b820183602082011115610b6957600080fd5b80359060200191846001830284011164010000000083111715610b8b57600080fd5b91908080601f016020809104026020016040519081016040528093929190818152602001838380828437600081840152601f19601f820116905080830192505050505050509192919290505050611c05565b005b610c0b60048036036020811015610bf557600080fd5b8101908080359060200190929190505050611d6d565b005b610c3960048036036020811015610c2357600080fd5b8101908080359060200190929190505050611e46565b005b610c43611f18565b6040518082815260200191505060405180910390f35b610c61611f1e565b604051808273ffffffffffffffffffffffffffffffffffffffff1673ffffffffffffffffffffffffffffffffffffffff16815260200191505060405180910390f35b610ccf60048036036020811015610cb957600080fd5b8101908080359060200190929190505050611f43565b604051808573ffffffffffffffffffffffffffffffffffffffff1673ffffffffffffffffffffffffffffffffffffffff1681526020018481526020018060200180602001838103835285818151815260200191508051906020019080838360005b83811015610d4b578082015181840152602081019050610d30565b50505050905090810190601f168015610d785780820380516001836020036101000a031916815260200191505b50838103825284818151815260200191508051906020019080838360005b83811015610db1578082015181840152602081019050610d96565b50505050905090810190601f168015610dde5780820380516001836020036101000a031916815260200191505b50965050505050505060405180910390f35b610df86120c3565b6040518082815260200191505060405180910390f35b610e3a60048036036020811015610e2457600080fd5b81019080803590602001909291905050506120c9565b6040518080602001828103825283818151815260200191508051906020019080838360005b83811015610e7a578082015181840152602081019050610e5f565b50505050905090810190601f168015610ea75780820380516001836020036101000a031916815260200191505b509250505060405180910390f35b610ee160048036036020811015610ecb57600080fd5b810190808035906020019092919050505061259f565b604051808981526020018060200180602001888152602001878152602001868152602001858152602001846005811115610f1757fe5b60ff16815260200183810383528a818151815260200191508051906020019080838360005b83811015610f57578082015181840152602081019050610f3c565b50505050905090810190601f168015610f845780820380516001836020036101000a031916815260200191505b50838103825289818151815260200191508051906020019080838360005b83811015610fbd578082015181840152602081019050610fa2565b50505050905090810190601f168015610fea5780820380516001836020036101000a031916815260200191505b509a505050505050505050505060405180910390f35b61102c6004803603602081101561101657600080fd5b8101908080359060200190929190505050612724565b604051808573ffffffffffffffffffffffffffffffffffffffff1673ffffffffffffffffffffffffffffffffffffffff1681526020018481526020018060200180602001838103835285818151815260200191508051906020019080838360005b838110156110a857808201518184015260208101905061108d565b50505050905090810190601f1680156110d55780820380516001836020036101000a031916815260200191505b50838103825284818151815260200191508051906020019080838360005b8381101561110e5780820151818401526020810190506110f3565b50505050905090810190601f16801561113b5780820380516001836020036101000a031916815260200191505b50965050505050505060405180910390f35b6000809054906101000a900473ffffffffffffffffffffffffffffffffffffffff1673ffffffffffffffffffffffffffffffffffffffff163373ffffffffffffffffffffffffffffffffffffffff16146111a657600080fd5b60046000815480929190600101919050555060405180608001604052808473ffffffffffffffffffffffffffffffffffffffff16815260200160045481526020018381526020018281525060096000600454815260200190815260200160002060008201518160000160006101000a81548173ffffffffffffffffffffffffffffffffffffffff021916908373ffffffffffffffffffffffffffffffffffffffff160217905550602082015181600101556040820151816002019080519060200190611273929190612ba8565b506060820151816003019080519060200190611290929190612ba8565b50905050505050565b60096020528060005260406000206000915090508060000160009054906101000a900473ffffffffffffffffffffffffffffffffffffffff1690806001015490806002018054600181600116156101000203166002900480601f0160208091040260200160405190810160405280929190818152602001828054600181600116156101000203166002900480156113715780601f1061134657610100808354040283529160200191611371565b820191906000526020600020905b81548152906001019060200180831161135457829003601f168201915b505050505090806003018054600181600116156101000203166002900480601f01602080910402602001604051908101604052809291908181526020018280546001816001161561010002031660029004801561140f5780601f106113e45761010080835404028352916020019161140f565b820191906000526020600020905b8154815290600101906020018083116113f257829003601f168201915b5050505050905084565b6000809054906101000a900473ffffffffffffffffffffffffffffffffffffffff1673ffffffffffffffffffffffffffffffffffffffff163373ffffffffffffffffffffffffffffffffffffffff161461147257600080fd5b60026000815480929190600101919050555060405180608001604052808473ffffffffffffffffffffffffffffffffffffffff16815260200160025481526020018381526020018281525060076000600254815260200190815260200160002060008201518160000160006101000a81548173ffffffffffffffffffffffffffffffffffffffff021916908373ffffffffffffffffffffffffffffffffffffffff16021790555060208201518160010155604082015181600201908051906020019061153f929190612ba8565b50606082015181600301908051906020019061155c929190612ba8565b50905050505050565b60045481565b60008111801561157d57506001548111155b61158657600080fd5b6000611591336128a4565b9050600081116115a057600080fd5b600360058111156115ad57fe5b6006600084815260200190815260200160002060070160009054906101000a900460ff1660058111156115dc57fe5b146115e657600080fd5b80600660008481526020019081526020016000206006018190555060046006600084815260200190815260200160002060070160006101000a81548160ff0219169083600581111561163457fe5b02179055505050565b60035481565b60008111801561165557506001548111155b61165e57600080fd5b600061166933612965565b90506000811161167857600080fd5b6002600581111561168557fe5b6006600084815260200190815260200160002060070160009054906101000a900460ff1660058111156116b457fe5b146116be57600080fd5b80600660008481526020019081526020016000206005018190555060036006600084815260200190815260200160002060070160006101000a81548160ff0219169083600581111561170c57fe5b02179055505050565b600a6020528060005260406000206000915090508060000160009054906101000a900473ffffffffffffffffffffffffffffffffffffffff1690806001015490806002018054600181600116156101000203166002900480601f0160208091040260200160405190810160405280929190818152602001828054600181600116156101000203166002900480156117ed5780601f106117c2576101008083540402835291602001916117ed565b820191906000526020600020905b8154815290600101906020018083116117d057829003601f168201915b505050505090806003018054600181600116156101000203166002900480601f01602080910402602001604051908101604052809291908181526020018280546001816001161561010002031660029004801561188b5780601f106118605761010080835404028352916020019161188b565b820191906000526020600020905b81548152906001019060200180831161186e57829003601f168201915b5050505050905084565b6000809054906101000a900473ffffffffffffffffffffffffffffffffffffffff1673ffffffffffffffffffffffffffffffffffffffff163373ffffffffffffffffffffffffffffffffffffffff16146118ee57600080fd5b60036000815480929190600101919050555060405180608001604052808473ffffffffffffffffffffffffffffffffffffffff16815260200160035481526020018381526020018281525060086000600354815260200190815260200160002060008201518160000160006101000a81548173ffffffffffffffffffffffffffffffffffffffff021916908373ffffffffffffffffffffffffffffffffffffffff1602179055506020820151816001015560408201518160020190805190602001906119bb929190612ba8565b5060608201518160030190805190602001906119d8929190612ba8565b50905050505050565b60055481565b6000809054906101000a900473ffffffffffffffffffffffffffffffffffffffff1673ffffffffffffffffffffffffffffffffffffffff163373ffffffffffffffffffffffffffffffffffffffff1614611a4057600080fd5b60056000815480929190600101919050555060405180608001604052808473ffffffffffffffffffffffffffffffffffffffff168152602001600554815260200183815260200182815250600a6000600554815260200190815260200160002060008201518160000160006101000a81548173ffffffffffffffffffffffffffffffffffffffff021916908373ffffffffffffffffffffffffffffffffffffffff160217905550602082015181600101556040820151816002019080519060200190611b0d929190612ba8565b506060820151816003019080519060200190611b2a929190612ba8565b50905050505050565b600081118015611b4557506001548111155b611b4e57600080fd5b6000611b5933612a26565b905060008111611b6857600080fd5b60006005811115611b7557fe5b6006600084815260200190815260200160002060070160009054906101000a900460ff166005811115611ba457fe5b14611bae57600080fd5b80600660008481526020019081526020016000206003018190555060016006600084815260200190815260200160002060070160006101000a81548160ff02191690836005811115611bfc57fe5b02179055505050565b6000809054906101000a900473ffffffffffffffffffffffffffffffffffffffff1673ffffffffffffffffffffffffffffffffffffffff163373ffffffffffffffffffffffffffffffffffffffff1614611c5e57600080fd5b60016000815480929190600101919050555060405180610100016040528060015481526020018381526020018281526020016000815260200160008152602001600081526020016000815260200160006005811115611cb957fe5b815250600660006001548152602001908152602001600020600082015181600001556020820151816001019080519060200190611cf7929190612ba8565b506040820151816002019080519060200190611d14929190612ba8565b50606082015181600301556080820151816004015560a0820151816005015560c0820151816006015560e08201518160070160006101000a81548160ff02191690836005811115611d6157fe5b02179055509050505050565b600081118015611d7f57506001548111155b611d8857600080fd5b6000611d93336128a4565b905060008111611da257600080fd5b60066000838152602001908152602001600020600601548114611dc457600080fd5b60046005811115611dd157fe5b6006600084815260200190815260200160002060070160009054906101000a900460ff166005811115611e0057fe5b14611e0a57600080fd5b60056006600084815260200190815260200160002060070160006101000a81548160ff02191690836005811115611e3d57fe5b02179055505050565b600081118015611e5857506001548111155b611e6157600080fd5b6000611e6c33612ae7565b905060008111611e7b57600080fd5b60016005811115611e8857fe5b6006600084815260200190815260200160002060070160009054906101000a900460ff166005811115611eb757fe5b14611ec157600080fd5b80600660008481526020019081526020016000206004018190555060026006600084815260200190815260200160002060070160006101000a81548160ff02191690836005811115611f0f57fe5b02179055505050565b60015481565b6000809054906101000a900473ffffffffffffffffffffffffffffffffffffffff1681565b60086020528060005260406000206000915090508060000160009054906101000a900473ffffffffffffffffffffffffffffffffffffffff1690806001015490806002018054600181600116156101000203166002900480601f01602080910402602001604051908101604052809291908181526020018280546001816001161561010002031660029004801561201b5780601f10611ff05761010080835404028352916020019161201b565b820191906000526020600020905b815481529060010190602001808311611ffe57829003601f168201915b505050505090806003018054600181600116156101000203166002900480601f0160208091040260200160405190810160405280929190818152602001828054600181600116156101000203166002900480156120b95780601f1061208e576101008083540402835291602001916120b9565b820191906000526020600020905b81548152906001019060200180831161209c57829003601f168201915b5050505050905084565b60025481565b606060015482111580156120dd5750600082115b61214f576040517f08c379a00000000000000000000000000000000000000000000000000000000081526004018080602001828103825260138152602001807f496e76616c6964206d65646963696e652049440000000000000000000000000081525060200191505060405180910390fd5b612157612c28565b600660008481526020019081526020016000206040518061010001604052908160008201548152602001600182018054600181600116156101000203166002900480601f0160208091040260200160405190810160405280929190818152602001828054600181600116156101000203166002900480156122195780601f106121ee57610100808354040283529160200191612219565b820191906000526020600020905b8154815290600101906020018083116121fc57829003601f168201915b50505050508152602001600282018054600181600116156101000203166002900480601f0160208091040260200160405190810160405280929190818152602001828054600181600116156101000203166002900480156122bb5780601f10612290576101008083540402835291602001916122bb565b820191906000526020600020905b81548152906001019060200180831161229e57829003601f168201915b50505050508152602001600382015481526020016004820154815260200160058201548152602001600682015481526020016007820160009054906101000a900460ff16600581111561230a57fe5b600581111561231557fe5b8152505090506000600581111561232857fe5b8160e00151600581111561233857fe5b141561237c576040518060400160405280601081526020017f4d65646963696e65204f7264657265640000000000000000000000000000000081525091505061259a565b6001600581111561238957fe5b8160e00151600581111561239957fe5b14156123dd576040518060400160405280601981526020017f526177204d6174657269616c20537570706c792053746167650000000000000081525091505061259a565b600260058111156123ea57fe5b8160e0015160058111156123fa57fe5b141561243e576040518060400160405280601381526020017f4d616e75666163747572696e672053746167650000000000000000000000000081525091505061259a565b6003600581111561244b57fe5b8160e00151600581111561245b57fe5b141561249f576040518060400160405280601281526020017f446973747269627574696f6e205374616765000000000000000000000000000081525091505061259a565b600460058111156124ac57fe5b8160e0015160058111156124bc57fe5b1415612500576040518060400160405280600c81526020017f52657461696c205374616765000000000000000000000000000000000000000081525091505061259a565b60058081111561250c57fe5b8160e00151600581111561251c57fe5b1415612560576040518060400160405280600d81526020017f4d65646963696e6520536f6c640000000000000000000000000000000000000081525091505061259a565b6040518060400160405280600d81526020017f556e6b6e6f776e205374616765000000000000000000000000000000000000008152509150505b919050565b6006602052806000526040600020600091509050806000015490806001018054600181600116156101000203166002900480601f0160208091040260200160405190810160405280929190818152602001828054600181600116156101000203166002900480156126515780601f1061262657610100808354040283529160200191612651565b820191906000526020600020905b81548152906001019060200180831161263457829003601f168201915b505050505090806002018054600181600116156101000203166002900480601f0160208091040260200160405190810160405280929190818152602001828054600181600116156101000203166002900480156126ef5780601f106126c4576101008083540402835291602001916126ef565b820191906000526020600020905b8154815290600101906020018083116126d257829003601f168201915b5050505050908060030154908060040154908060050154908060060154908060070160009054906101000a900460ff16905088565b60076020528060005260406000206000915090508060000160009054906101000a900473ffffffffffffffffffffffffffffffffffffffff1690806001015490806002018054600181600116156101000203166002900480601f0160208091040260200160405190810160405280929190818152602001828054600181600116156101000203166002900480156127fc5780601f106127d1576101008083540402835291602001916127fc565b820191906000526020600020905b8154815290600101906020018083116127df57829003601f168201915b505050505090806003018054600181600116156101000203166002900480601f01602080910402602001604051908101604052809291908181526020018280546001816001161561010002031660029004801561289a5780601f1061286f5761010080835404028352916020019161289a565b820191906000526020600020905b81548152906001019060200180831161287d57829003601f168201915b5050505050905084565b600080600554116128b457600080fd5b6000600190505b600554811161295a578273ffffffffffffffffffffffffffffffffffffffff16600a600083815260200190815260200160002060000160009054906101000a900473ffffffffffffffffffffffffffffffffffffffff1673ffffffffffffffffffffffffffffffffffffffff16141561294d57600a600082815260200190815260200160002060010154915050612960565b80806001019150506128bb565b50600090505b919050565b6000806004541161297557600080fd5b6000600190505b6004548111612a1b578273ffffffffffffffffffffffffffffffffffffffff166009600083815260200190815260200160002060000160009054906101000a900473ffffffffffffffffffffffffffffffffffffffff1673ffffffffffffffffffffffffffffffffffffffff161415612a0e576009600082815260200190815260200160002060010154915050612a21565b808060010191505061297c565b50600090505b919050565b60008060025411612a3657600080fd5b6000600190505b6002548111612adc578273ffffffffffffffffffffffffffffffffffffffff166007600083815260200190815260200160002060000160009054906101000a900473ffffffffffffffffffffffffffffffffffffffff1673ffffffffffffffffffffffffffffffffffffffff161415612acf576007600082815260200190815260200160002060010154915050612ae2565b8080600101915050612a3d565b50600090505b919050565b60008060035411612af757600080fd5b6000600190505b6003548111612b9d578273ffffffffffffffffffffffffffffffffffffffff166008600083815260200190815260200160002060000160009054906101000a900473ffffffffffffffffffffffffffffffffffffffff1673ffffffffffffffffffffffffffffffffffffffff161415612b90576008600082815260200190815260200160002060010154915050612ba3565b8080600101915050612afe565b50600090505b919050565b828054600181600116156101000203166002900490600052602060002090601f016020900481019282601f10612be957805160ff1916838001178555612c17565b82800160010185558215612c17579182015b82811115612c16578251825591602001919060010190612bfb565b5b509050612c249190612c78565b5090565b6040518061010001604052806000815260200160608152602001606081526020016000815260200160008152602001600081526020016000815260200160006005811115612c7257fe5b81525090565b612c9a91905b80821115612c96576000816000905550600101612c7e565b5090565b9056fea265627a7a72315820088bf4e4cedc1281f084e04f2fb0f6767e07605d621e9aee44dd2b766fe4e1f264736f6c63430005100032",
  "source": "// SPDX-License-Identifier: MIT\r\npragma solidity >=0.4.22 <0.9.0;\r\n\r\ncontract SupplyChain {\r\n    address public Owner;\r\n\r\n    constructor() public {\r\n        Owner = msg.sender;\r\n    }\r\n\r\n    modifier onlyByOwner() {\r\n        require(msg.sender == Owner);\r\n        _;\r\n    }\r\n\r\n    enum STAGE {\r\n        Init,\r\n        RawMaterialSupply,\r\n        Manufacture,\r\n        Distribution,\r\n        Retail,\r\n        sold\r\n    }\r\n\r\n    uint256 public medicineCtr = 0;\r\n    uint256 public rmsCtr = 0;\r\n    uint256 public manCtr = 0;\r\n    uint256 public disCtr = 0;\r\n    uint256 public retCtr = 0;\r\n\r\n    struct medicine {\r\n        uint256 id;\r\n        string name;\r\n        string description;\r\n        uint256 RMSid;\r\n        uint256 MANid;\r\n        uint256 DISid;\r\n        uint256 RETid;\r\n        STAGE stage;\r\n    }\r\n\r\n    mapping(uint256 => medicine) public MedicineStock;\r\n\r\n    function showStage(\r\n        uint256 _medicineID\r\n    ) public view returns (string memory) {\r\n        require(\r\n            _medicineID <= medicineCtr && _medicineID > 0,\r\n            \"Invalid medicine ID\"\r\n        );\r\n\r\n        medicine memory m = MedicineStock[_medicineID];\r\n\r\n        if (m.stage == STAGE.Init) return \"Medicine Ordered\";\r\n        else if (m.stage == STAGE.RawMaterialSupply)\r\n            return \"Raw Material Supply Stage\";\r\n        else if (m.stage == STAGE.Manufacture) return \"Manufacturing Stage\";\r\n        else if (m.stage == STAGE.Distribution) return \"Distribution Stage\";\r\n        else if (m.stage == STAGE.Retail) return \"Retail Stage\";\r\n        else if (m.stage == STAGE.sold) return \"Medicine Sold\";\r\n        else return \"Unknown Stage\";\r\n    }\r\n\r\n    struct rawMaterialSupplier {\r\n        address addr;\r\n        uint256 id;\r\n        string name;\r\n        string place;\r\n    }\r\n\r\n    mapping(uint256 => rawMaterialSupplier) public RMS;\r\n\r\n    struct manufacturer {\r\n        address addr;\r\n        uint256 id;\r\n        string name;\r\n        string place;\r\n    }\r\n\r\n    mapping(uint256 => manufacturer) public MAN;\r\n\r\n    struct distributor {\r\n        address addr;\r\n        uint256 id;\r\n        string name;\r\n        string place;\r\n    }\r\n\r\n    mapping(uint256 => distributor) public DIS;\r\n\r\n    struct retailer {\r\n        address addr;\r\n        uint256 id;\r\n        string name;\r\n        string place;\r\n    }\r\n\r\n    mapping(uint256 => retailer) public RET;\r\n\r\n    function addRMS(\r\n        address _address,\r\n        string memory _name,\r\n        string memory _place\r\n    ) public onlyByOwner {\r\n        rmsCtr++;\r\n        RMS[rmsCtr] = rawMaterialSupplier(_address, rmsCtr, _name, _place);\r\n    }\r\n\r\n    function addManufacturer(\r\n        address _address,\r\n        string memory _name,\r\n        string memory _place\r\n    ) public onlyByOwner {\r\n        manCtr++;\r\n        MAN[manCtr] = manufacturer(_address, manCtr, _name, _place);\r\n    }\r\n\r\n    function addDistributor(\r\n        address _address,\r\n        string memory _name,\r\n        string memory _place\r\n    ) public onlyByOwner {\r\n        disCtr++;\r\n        DIS[disCtr] = distributor(_address, disCtr, _name, _place);\r\n    }\r\n\r\n    function addRetailer(\r\n        address _address,\r\n        string memory _name,\r\n        string memory _place\r\n    ) public onlyByOwner {\r\n        retCtr++;\r\n        RET[retCtr] = retailer(_address, retCtr, _name, _place);\r\n    }\r\n\r\n    function RMSsupply(uint256 _medicineID) public {\r\n        require(_medicineID > 0 && _medicineID <= medicineCtr);\r\n        uint256 _id = findRMS(msg.sender);\r\n        require(_id > 0);\r\n        require(MedicineStock[_medicineID].stage == STAGE.Init);\r\n        MedicineStock[_medicineID].RMSid = _id;\r\n        MedicineStock[_medicineID].stage = STAGE.RawMaterialSupply;\r\n    }\r\n\r\n    function findRMS(address _address) private view returns (uint256) {\r\n        require(rmsCtr > 0);\r\n        for (uint256 i = 1; i <= rmsCtr; i++) {\r\n            if (RMS[i].addr == _address) return RMS[i].id;\r\n        }\r\n        return 0;\r\n    }\r\n\r\n    function Manufacturing(uint256 _medicineID) public {\r\n        require(_medicineID > 0 && _medicineID <= medicineCtr);\r\n        uint256 _id = findMAN(msg.sender);\r\n        require(_id > 0);\r\n        require(MedicineStock[_medicineID].stage == STAGE.RawMaterialSupply);\r\n        MedicineStock[_medicineID].MANid = _id;\r\n        MedicineStock[_medicineID].stage = STAGE.Manufacture;\r\n    }\r\n\r\n    function findMAN(address _address) private view returns (uint256) {\r\n        require(manCtr > 0);\r\n        for (uint256 i = 1; i <= manCtr; i++) {\r\n            if (MAN[i].addr == _address) return MAN[i].id;\r\n        }\r\n        return 0;\r\n    }\r\n\r\n    function Distribute(uint256 _medicineID) public {\r\n        require(_medicineID > 0 && _medicineID <= medicineCtr);\r\n        uint256 _id = findDIS(msg.sender);\r\n        require(_id > 0);\r\n        require(MedicineStock[_medicineID].stage == STAGE.Manufacture);\r\n        MedicineStock[_medicineID].DISid = _id;\r\n        MedicineStock[_medicineID].stage = STAGE.Distribution;\r\n    }\r\n\r\n    function findDIS(address _address) private view returns (uint256) {\r\n        require(disCtr > 0);\r\n        for (uint256 i = 1; i <= disCtr; i++) {\r\n            if (DIS[i].addr == _address) return DIS[i].id;\r\n        }\r\n        return 0;\r\n    }\r\n\r\n    function Retail(uint256 _medicineID) public {\r\n        require(_medicineID > 0 && _medicineID <= medicineCtr);\r\n        uint256 _id = findRET(msg.sender);\r\n        require(_id > 0);\r\n        require(MedicineStock[_medicineID].stage == STAGE.Distribution);\r\n        MedicineStock[_medicineID].RETid = _id;\r\n        MedicineStock[_medicineID].stage = STAGE.Retail;\r\n    }\r\n\r\n    function findRET(address _address) private view returns (uint256) {\r\n        require(retCtr > 0);\r\n        for (uint256 i = 1; i <= retCtr; i++) {\r\n            if (RET[i].addr == _address) return RET[i].id;\r\n        }\r\n        return 0;\r\n    }\r\n\r\n    function sold(uint256 _medicineID) public {\r\n        require(_medicineID > 0 && _medicineID <= medicineCtr);\r\n        uint256 _id = findRET(msg.sender);\r\n        require(_id > 0);\r\n        require(_id == MedicineStock[_medicineID].RETid);\r\n        require(MedicineStock[_medicineID].stage == STAGE.Retail);\r\n        MedicineStock[_medicineID].stage = STAGE.sold;\r\n    }\r\n\r\n    function addMedicine(\r\n        string memory _name,\r\n        string memory _description\r\n    ) public onlyByOwner {\r\n        // require((rmsCtr > 0) && (manCtr > 0) && (disCtr > 0) && (retCtr > 0));\r\n        medicineCtr++;\r\n        MedicineStock[medicineCtr] = medicine(\r\n            medicineCtr,\r\n            _name,\r\n            _description,\r\n            0,\r\n            0,\r\n            0,\r\n            0,\r\n            STAGE.Init\r\n        );\r\n    }\r\n}\r\n",
  "sourcePath": "C:\\Users\\micro\\Desktop\\Blockchian Project\\Supplychain-Medicine-blockchain\\contracts\\SupplyChain.sol",
  "compiler": {
    "name": "solc",
    "version": "0.5.16+commit.9c3226ce.Emscripten.clang"
  },
  "schemaVersion": "3.4.16",
  "updatedAt": "2024-04-29T12:11:30.008Z",
  "networkType": "ethereum",
  "devdoc": {
    "methods": {}
  },
  "userdoc": {
    "methods": {}
  }
}